{
  "_format": "hh-sol-artifact-1",
  "contractName": "NFTMarketplace",
  "sourceName": "contracts/NFTMarketplace.sol",
  "abi": [
    {
      "inputs": [],
      "stateMutability": "nonpayable",
      "type": "constructor"
    },
    {
      "inputs": [
        {
          "internalType": "uint256",
          "name": "tokenId",
          "type": "uint256"
        },
        {
          "internalType": "address",
          "name": "nftContract",
          "type": "address"
        }
      ],
      "name": "createMarketItem",
      "outputs": [
        {
          "internalType": "uint256",
          "name": "",
          "type": "uint256"
        }
      ],
      "stateMutability": "nonpayable",
      "type": "function"
    },
    {
      "inputs": [],
      "name": "fetchAllItems",
      "outputs": [
        {
          "components": [
            {
              "internalType": "uint256",
              "name": "itemId",
              "type": "uint256"
            },
            {
              "internalType": "uint256",
              "name": "tokenId",
              "type": "uint256"
            },
            {
              "internalType": "address",
              "name": "nftContract",
              "type": "address"
            },
            {
              "internalType": "address payable",
              "name": "owner",
              "type": "address"
            },
            {
              "internalType": "address",
              "name": "lastSeller",
              "type": "address"
            },
            {
              "internalType": "address[]",
              "name": "prevOwners",
              "type": "address[]"
            },
            {
              "internalType": "uint256",
              "name": "price",
              "type": "uint256"
            },
            {
              "internalType": "uint256",
              "name": "lastPrice",
              "type": "uint256"
            },
            {
              "internalType": "bool",
              "name": "onSale",
              "type": "bool"
            }
          ],
          "internalType": "struct NFTMarketplace.MarketItem[]",
          "name": "",
          "type": "tuple[]"
        }
      ],
      "stateMutability": "view",
      "type": "function"
    },
    {
      "inputs": [],
      "name": "fetchAllItemsOfOwner",
      "outputs": [
        {
          "components": [
            {
              "internalType": "uint256",
              "name": "itemId",
              "type": "uint256"
            },
            {
              "internalType": "uint256",
              "name": "tokenId",
              "type": "uint256"
            },
            {
              "internalType": "address",
              "name": "nftContract",
              "type": "address"
            },
            {
              "internalType": "address payable",
              "name": "owner",
              "type": "address"
            },
            {
              "internalType": "address",
              "name": "lastSeller",
              "type": "address"
            },
            {
              "internalType": "address[]",
              "name": "prevOwners",
              "type": "address[]"
            },
            {
              "internalType": "uint256",
              "name": "price",
              "type": "uint256"
            },
            {
              "internalType": "uint256",
              "name": "lastPrice",
              "type": "uint256"
            },
            {
              "internalType": "bool",
              "name": "onSale",
              "type": "bool"
            }
          ],
          "internalType": "struct NFTMarketplace.MarketItem[]",
          "name": "",
          "type": "tuple[]"
        }
      ],
      "stateMutability": "view",
      "type": "function"
    },
    {
      "inputs": [],
      "name": "fetchAllItemsOnSale",
      "outputs": [
        {
          "components": [
            {
              "internalType": "uint256",
              "name": "itemId",
              "type": "uint256"
            },
            {
              "internalType": "uint256",
              "name": "tokenId",
              "type": "uint256"
            },
            {
              "internalType": "address",
              "name": "nftContract",
              "type": "address"
            },
            {
              "internalType": "address payable",
              "name": "owner",
              "type": "address"
            },
            {
              "internalType": "address",
              "name": "lastSeller",
              "type": "address"
            },
            {
              "internalType": "address[]",
              "name": "prevOwners",
              "type": "address[]"
            },
            {
              "internalType": "uint256",
              "name": "price",
              "type": "uint256"
            },
            {
              "internalType": "uint256",
              "name": "lastPrice",
              "type": "uint256"
            },
            {
              "internalType": "bool",
              "name": "onSale",
              "type": "bool"
            }
          ],
          "internalType": "struct NFTMarketplace.MarketItem[]",
          "name": "",
          "type": "tuple[]"
        }
      ],
      "stateMutability": "view",
      "type": "function"
    },
    {
      "inputs": [
        {
          "internalType": "uint256",
          "name": "itemId",
          "type": "uint256"
        },
        {
          "internalType": "address",
          "name": "nftContract",
          "type": "address"
        },
        {
          "internalType": "uint256",
          "name": "price",
          "type": "uint256"
        }
      ],
      "name": "listItemOnSale",
      "outputs": [],
      "stateMutability": "payable",
      "type": "function"
    },
    {
      "inputs": [
        {
          "internalType": "address",
          "name": "operator",
          "type": "address"
        },
        {
          "internalType": "address",
          "name": "from",
          "type": "address"
        },
        {
          "internalType": "uint256",
          "name": "tokenId",
          "type": "uint256"
        },
        {
          "internalType": "bytes",
          "name": "data",
          "type": "bytes"
        }
      ],
      "name": "onERC721Received",
      "outputs": [
        {
          "internalType": "bytes4",
          "name": "",
          "type": "bytes4"
        }
      ],
      "stateMutability": "pure",
      "type": "function"
    },
    {
      "inputs": [
        {
          "internalType": "uint256",
          "name": "itemId",
          "type": "uint256"
        },
        {
          "internalType": "address",
          "name": "nftContract",
          "type": "address"
        }
      ],
      "name": "sellMarketItem",
      "outputs": [],
      "stateMutability": "payable",
      "type": "function"
    }
  ],
  "bytecode": "0x608060405266b1a2bc2ec5000060035534801561001b57600080fd5b50600160008190555033600260006101000a81548173ffffffffffffffffffffffffffffffffffffffff021916908373ffffffffffffffffffffffffffffffffffffffff1602179055506120c4806100746000396000f3fe6080604052600436106100705760003560e01c80635f5e637f1161004e5780635f5e637f1461011a57806397598cc314610136578063b161500c14610161578063d8ad0cc71461017d57610070565b806309d2fb3614610075578063150b7a02146100a05780633e339590146100dd575b600080fd5b34801561008157600080fd5b5061008a6101a8565b6040516100979190611c2f565b60405180910390f35b3480156100ac57600080fd5b506100c760048036038101906100c291906117ee565b6105d2565b6040516100d49190611c51565b60405180910390f35b3480156100e957600080fd5b5061010460048036038101906100ff919061186e565b6105e7565b6040516101119190611d2c565b60405180910390f35b610134600480360381019061012f919061186e565b6108dd565b005b34801561014257600080fd5b5061014b610cb4565b6040516101589190611c2f565b60405180910390f35b61017b600480360381019061017691906118aa565b610fb1565b005b34801561018957600080fd5b5061019261122b565b60405161019f9190611c2f565b60405180910390f35b606060006101b660016115e1565b90506000805b8281101561025c573373ffffffffffffffffffffffffffffffffffffffff16600460006001846101ec9190611dca565b815260200190815260200160002060030160009054906101000a900473ffffffffffffffffffffffffffffffffffffffff1673ffffffffffffffffffffffffffffffffffffffff16141561024957818061024590611ea6565b9250505b808061025490611ea6565b9150506101bc565b5060008167ffffffffffffffff81111561029f577f4e487b7100000000000000000000000000000000000000000000000000000000600052604160045260246000fd5b6040519080825280602002602001820160405280156102d857816020015b6102c5611605565b8152602001906001900390816102bd5790505b5090506000805b848110156105c7573373ffffffffffffffffffffffffffffffffffffffff166004600060018461030f9190611dca565b815260200190815260200160002060030160009054906101000a900473ffffffffffffffffffffffffffffffffffffffff1673ffffffffffffffffffffffffffffffffffffffff1614156105b4576000600460006001846103709190611dca565b81526020019081526020016000209050806040518061012001604052908160008201548152602001600182015481526020016002820160009054906101000a900473ffffffffffffffffffffffffffffffffffffffff1673ffffffffffffffffffffffffffffffffffffffff1673ffffffffffffffffffffffffffffffffffffffff1681526020016003820160009054906101000a900473ffffffffffffffffffffffffffffffffffffffff1673ffffffffffffffffffffffffffffffffffffffff1673ffffffffffffffffffffffffffffffffffffffff1681526020016004820160009054906101000a900473ffffffffffffffffffffffffffffffffffffffff1673ffffffffffffffffffffffffffffffffffffffff1673ffffffffffffffffffffffffffffffffffffffff1681526020016005820180548060200260200160405190810160405280929190818152602001828054801561052857602002820191906000526020600020905b8160009054906101000a900473ffffffffffffffffffffffffffffffffffffffff1673ffffffffffffffffffffffffffffffffffffffff16815260200190600101908083116104de575b5050505050815260200160068201548152602001600782015481526020016008820160009054906101000a900460ff161515151581525050848481518110610599577f4e487b7100000000000000000000000000000000000000000000000000000000600052603260045260246000fd5b602002602001018190525082806105af90611ea6565b935050505b80806105bf90611ea6565b9150506102df565b508194505050505090565b600063150b7a0260e01b905095945050505050565b60003373ffffffffffffffffffffffffffffffffffffffff168273ffffffffffffffffffffffffffffffffffffffff16636352211e856040518263ffffffff1660e01b81526004016106399190611d2c565b60206040518083038186803b15801561065157600080fd5b505afa158015610665573d6000803e3d6000fd5b505050506040513d601f19601f8201168201806040525081019061068991906117c5565b73ffffffffffffffffffffffffffffffffffffffff16146106df576040517f08c379a00000000000000000000000000000000000000000000000000000000081526004016106d690611d0c565b60405180910390fd5b6106e960016115ef565b60006106f560016115e1565b905060606040518061012001604052808381526020018681526020018573ffffffffffffffffffffffffffffffffffffffff1681526020013373ffffffffffffffffffffffffffffffffffffffff168152602001600073ffffffffffffffffffffffffffffffffffffffff16815260200182815260200160008152602001600081526020016000151581525060046000848152602001908152602001600020600082015181600001556020820151816001015560408201518160020160006101000a81548173ffffffffffffffffffffffffffffffffffffffff021916908373ffffffffffffffffffffffffffffffffffffffff16021790555060608201518160030160006101000a81548173ffffffffffffffffffffffffffffffffffffffff021916908373ffffffffffffffffffffffffffffffffffffffff16021790555060808201518160040160006101000a81548173ffffffffffffffffffffffffffffffffffffffff021916908373ffffffffffffffffffffffffffffffffffffffff16021790555060a0820151816005019080519060200190610899929190611695565b5060c0820151816006015560e082015181600701556101008201518160080160006101000a81548160ff021916908315150217905550905050819250505092915050565b60026000541415610923576040517f08c379a000000000000000000000000000000000000000000000000000000000815260040161091a90611ccc565b60405180910390fd5b600260008190555060046000838152602001908152602001600020600601543414610983576040517f08c379a000000000000000000000000000000000000000000000000000000000815260040161097a90611cac565b60405180910390fd5b6004600083815260200190815260200160002060030160009054906101000a900473ffffffffffffffffffffffffffffffffffffffff1673ffffffffffffffffffffffffffffffffffffffff163373ffffffffffffffffffffffffffffffffffffffff161415610a28576040517f08c379a0000000000000000000000000000000000000000000000000000000008152600401610a1f90611cec565b60405180910390fd5b8073ffffffffffffffffffffffffffffffffffffffff166342842e0e303360046000878152602001908152602001600020600101546040518463ffffffff1660e01b8152600401610a7b93929190611bf8565b600060405180830381600087803b158015610a9557600080fd5b505af1158015610aa9573d6000803e3d6000fd5b505050506004600083815260200190815260200160002060030160009054906101000a900473ffffffffffffffffffffffffffffffffffffffff1673ffffffffffffffffffffffffffffffffffffffff166108fc349081150290604051600060405180830381858888f19350505050158015610b29573d6000803e3d6000fd5b50600460008381526020019081526020016000206005016004600084815260200190815260200160002060030160009054906101000a900473ffffffffffffffffffffffffffffffffffffffff169080600181540180825580915050600190039060005260206000200160009091909190916101000a81548173ffffffffffffffffffffffffffffffffffffffff021916908373ffffffffffffffffffffffffffffffffffffffff160217905550336004600084815260200190815260200160002060030160006101000a81548173ffffffffffffffffffffffffffffffffffffffff021916908373ffffffffffffffffffffffffffffffffffffffff160217905550600460008381526020019081526020016000206006015460046000848152602001908152602001600020600701819055506000600460008481526020019081526020016000206006018190555060006004600084815260200190815260200160002060080160006101000a81548160ff02191690831515021790555060016000819055505050565b60606000610cc260016115e1565b905060008167ffffffffffffffff811115610d06577f4e487b7100000000000000000000000000000000000000000000000000000000600052604160045260246000fd5b604051908082528060200260200182016040528015610d3f57816020015b610d2c611605565b815260200190600190039081610d245790505b50905060005b82811015610fa857600060046000600184610d609190611dca565b81526020019081526020016000209050806040518061012001604052908160008201548152602001600182015481526020016002820160009054906101000a900473ffffffffffffffffffffffffffffffffffffffff1673ffffffffffffffffffffffffffffffffffffffff1673ffffffffffffffffffffffffffffffffffffffff1681526020016003820160009054906101000a900473ffffffffffffffffffffffffffffffffffffffff1673ffffffffffffffffffffffffffffffffffffffff1673ffffffffffffffffffffffffffffffffffffffff1681526020016004820160009054906101000a900473ffffffffffffffffffffffffffffffffffffffff1673ffffffffffffffffffffffffffffffffffffffff1673ffffffffffffffffffffffffffffffffffffffff16815260200160058201805480602002602001604051908101604052809291908181526020018280548015610f1857602002820191906000526020600020905b8160009054906101000a900473ffffffffffffffffffffffffffffffffffffffff1673ffffffffffffffffffffffffffffffffffffffff1681526020019060010190808311610ece575b5050505050815260200160068201548152602001600782015481526020016008820160009054906101000a900460ff161515151581525050838381518110610f89577f4e487b7100000000000000000000000000000000000000000000000000000000600052603260045260246000fd5b6020026020010181905250508080610fa090611ea6565b915050610d45565b50809250505090565b3373ffffffffffffffffffffffffffffffffffffffff166004600085815260200190815260200160002060030160009054906101000a900473ffffffffffffffffffffffffffffffffffffffff1673ffffffffffffffffffffffffffffffffffffffff1614611055576040517f08c379a000000000000000000000000000000000000000000000000000000000815260040161104c90611c6c565b60405180910390fd5b6003543414611099576040517f08c379a000000000000000000000000000000000000000000000000000000000815260040161109090611c8c565b60405180910390fd5b8173ffffffffffffffffffffffffffffffffffffffff166342842e0e333060046000888152602001908152602001600020600101546040518463ffffffff1660e01b81526004016110ec93929190611bf8565b600060405180830381600087803b15801561110657600080fd5b505af115801561111a573d6000803e3d6000fd5b50505050600260009054906101000a900473ffffffffffffffffffffffffffffffffffffffff1673ffffffffffffffffffffffffffffffffffffffff166108fc349081150290604051600060405180830381858888f19350505050158015611186573d6000803e3d6000fd5b5060016004600085815260200190815260200160002060080160006101000a81548160ff021916908315150217905550336004600085815260200190815260200160002060040160006101000a81548173ffffffffffffffffffffffffffffffffffffffff021916908373ffffffffffffffffffffffffffffffffffffffff160217905550806004600085815260200190815260200160002060060181905550505050565b6060600061123960016115e1565b90506000805b828110156112a557600115156004600060018461125c9190611dca565b815260200190815260200160002060080160009054906101000a900460ff161515141561129257818061128e90611ea6565b9250505b808061129d90611ea6565b91505061123f565b5060008167ffffffffffffffff8111156112e8577f4e487b7100000000000000000000000000000000000000000000000000000000600052604160045260246000fd5b60405190808252806020026020018201604052801561132157816020015b61130e611605565b8152602001906001900390816113065790505b5090506000805b848110156115d65760011515600460006001846113459190611dca565b815260200190815260200160002060080160009054906101000a900460ff16151514156115c35760006004600060018461137f9190611dca565b81526020019081526020016000209050806040518061012001604052908160008201548152602001600182015481526020016002820160009054906101000a900473ffffffffffffffffffffffffffffffffffffffff1673ffffffffffffffffffffffffffffffffffffffff1673ffffffffffffffffffffffffffffffffffffffff1681526020016003820160009054906101000a900473ffffffffffffffffffffffffffffffffffffffff1673ffffffffffffffffffffffffffffffffffffffff1673ffffffffffffffffffffffffffffffffffffffff1681526020016004820160009054906101000a900473ffffffffffffffffffffffffffffffffffffffff1673ffffffffffffffffffffffffffffffffffffffff1673ffffffffffffffffffffffffffffffffffffffff1681526020016005820180548060200260200160405190810160405280929190818152602001828054801561153757602002820191906000526020600020905b8160009054906101000a900473ffffffffffffffffffffffffffffffffffffffff1673ffffffffffffffffffffffffffffffffffffffff16815260200190600101908083116114ed575b5050505050815260200160068201548152602001600782015481526020016008820160009054906101000a900460ff1615151515815250508484815181106115a8577f4e487b7100000000000000000000000000000000000000000000000000000000600052603260045260246000fd5b602002602001018190525082806115be90611ea6565b935050505b80806115ce90611ea6565b915050611328565b508194505050505090565b600081600001549050919050565b6001816000016000828254019250508190555050565b6040518061012001604052806000815260200160008152602001600073ffffffffffffffffffffffffffffffffffffffff168152602001600073ffffffffffffffffffffffffffffffffffffffff168152602001600073ffffffffffffffffffffffffffffffffffffffff1681526020016060815260200160008152602001600081526020016000151581525090565b82805482825590600052602060002090810192821561170e579160200282015b8281111561170d5782518260006101000a81548173ffffffffffffffffffffffffffffffffffffffff021916908373ffffffffffffffffffffffffffffffffffffffff160217905550916020019190600101906116b5565b5b50905061171b919061171f565b5090565b5b80821115611738576000816000905550600101611720565b5090565b60008135905061174b81612060565b92915050565b60008151905061176081612060565b92915050565b60008083601f84011261177857600080fd5b8235905067ffffffffffffffff81111561179157600080fd5b6020830191508360018202830111156117a957600080fd5b9250929050565b6000813590506117bf81612077565b92915050565b6000602082840312156117d757600080fd5b60006117e584828501611751565b91505092915050565b60008060008060006080868803121561180657600080fd5b60006118148882890161173c565b95505060206118258882890161173c565b9450506040611836888289016117b0565b935050606086013567ffffffffffffffff81111561185357600080fd5b61185f88828901611766565b92509250509295509295909350565b6000806040838503121561188157600080fd5b600061188f858286016117b0565b92505060206118a08582860161173c565b9150509250929050565b6000806000606084860312156118bf57600080fd5b60006118cd868287016117b0565b93505060206118de8682870161173c565b92505060406118ef868287016117b0565b9150509250925092565b60006119058383611934565b60208301905092915050565b600061191d8383611b15565b905092915050565b61192e81611e32565b82525050565b61193d81611e20565b82525050565b61194c81611e20565b82525050565b600061195d82611d67565b6119678185611d97565b935061197283611d47565b8060005b838110156119a357815161198a88826118f9565b975061199583611d7d565b925050600181019050611976565b5085935050505092915050565b60006119bb82611d72565b6119c58185611da8565b9350836020820285016119d785611d57565b8060005b85811015611a1357848403895281516119f48582611911565b94506119ff83611d8a565b925060208a019950506001810190506119db565b50829750879550505050505092915050565b611a2e81611e44565b82525050565b611a3d81611e50565b82525050565b6000611a50602483611db9565b9150611a5b82611f1e565b604082019050919050565b6000611a73603883611db9565b9150611a7e82611f6d565b604082019050919050565b6000611a96601d83611db9565b9150611aa182611fbc565b602082019050919050565b6000611ab9601f83611db9565b9150611ac482611fe5565b602082019050919050565b6000611adc601e83611db9565b9150611ae78261200e565b602082019050919050565b6000611aff601d83611db9565b9150611b0a82612037565b602082019050919050565b600061012083016000830151611b2e6000860182611bda565b506020830151611b416020860182611bda565b506040830151611b546040860182611934565b506060830151611b676060860182611925565b506080830151611b7a6080860182611934565b5060a083015184820360a0860152611b928282611952565b91505060c0830151611ba760c0860182611bda565b5060e0830151611bba60e0860182611bda565b50610100830151611bcf610100860182611a25565b508091505092915050565b611be381611e9c565b82525050565b611bf281611e9c565b82525050565b6000606082019050611c0d6000830186611943565b611c1a6020830185611943565b611c276040830184611be9565b949350505050565b60006020820190508181036000830152611c4981846119b0565b905092915050565b6000602082019050611c666000830184611a34565b92915050565b60006020820190508181036000830152611c8581611a43565b9050919050565b60006020820190508181036000830152611ca581611a66565b9050919050565b60006020820190508181036000830152611cc581611a89565b9050919050565b60006020820190508181036000830152611ce581611aac565b9050919050565b60006020820190508181036000830152611d0581611acf565b9050919050565b60006020820190508181036000830152611d2581611af2565b9050919050565b6000602082019050611d416000830184611be9565b92915050565b6000819050602082019050919050565b6000819050602082019050919050565b600081519050919050565b600081519050919050565b6000602082019050919050565b6000602082019050919050565b600082825260208201905092915050565b600082825260208201905092915050565b600082825260208201905092915050565b6000611dd582611e9c565b9150611de083611e9c565b9250827fffffffffffffffffffffffffffffffffffffffffffffffffffffffffffffffff03821115611e1557611e14611eef565b5b828201905092915050565b6000611e2b82611e7c565b9050919050565b6000611e3d82611e7c565b9050919050565b60008115159050919050565b60007fffffffff0000000000000000000000000000000000000000000000000000000082169050919050565b600073ffffffffffffffffffffffffffffffffffffffff82169050919050565b6000819050919050565b6000611eb182611e9c565b91507fffffffffffffffffffffffffffffffffffffffffffffffffffffffffffffffff821415611ee457611ee3611eef565b5b600182019050919050565b7f4e487b7100000000000000000000000000000000000000000000000000000000600052601160045260246000fd5b7f6f6e6c79206f776e65722063616e207075742074686973206974656d206f6e2060008201527f73616c6500000000000000000000000000000000000000000000000000000000602082015250565b7f416d6f756e7420646f65736e2774206d656574206c697374696e67206665657360008201527f20726571756972656d656e747320282e30303235657468290000000000000000602082015250565b7f416d6f756e74206d75737420626520657175616c20746f207072696365000000600082015250565b7f5265656e7472616e637947756172643a207265656e7472616e742063616c6c00600082015250565b7f4f776e65722073686f756c646e277420627579207468656972204e4654730000600082015250565b7f4f6e6c79206f776e65722063616e206c697374206e6577204974656d73000000600082015250565b61206981611e20565b811461207457600080fd5b50565b61208081611e9c565b811461208b57600080fd5b5056fea26469706673582212200434b2cc0c0aaa50b3acd7f9c9c06ec6dd7fe93bce479205fd90fccb112020d064736f6c63430008040033",
  "linkReferences": {},
  "deployedLinkReferences": {}
}